{"abi":[{"type":"constructor","inputs":[{"name":"_usdcToken","type":"address","internalType":"address"},{"name":"_feeCollector","type":"address","internalType":"address"}],"stateMutability":"nonpayable"},{"type":"function","name":"FEE_DENOMINATOR","inputs":[],"outputs":[{"name":"","type":"uint256","internalType":"uint256"}],"stateMutability":"view"},{"type":"function","name":"FEE_PERCENTAGE","inputs":[],"outputs":[{"name":"","type":"uint256","internalType":"uint256"}],"stateMutability":"view"},{"type":"function","name":"calculatePotentialWinnings","inputs":[{"name":"_marketId","type":"uint256","internalType":"uint256"},{"name":"_outcome","type":"uint8","internalType":"enum PredictionMarket.Outcome"},{"name":"_betAmount","type":"uint256","internalType":"uint256"}],"outputs":[{"name":"","type":"uint256","internalType":"uint256"}],"stateMutability":"view"},{"type":"function","name":"claimWinnings","inputs":[{"name":"_marketId","type":"uint256","internalType":"uint256"}],"outputs":[],"stateMutability":"nonpayable"},{"type":"function","name":"createMarket","inputs":[{"name":"_question","type":"string","internalType":"string"},{"name":"_description","type":"string","internalType":"string"},{"name":"_endTime","type":"uint256","internalType":"uint256"},{"name":"_resolutionTime","type":"uint256","internalType":"uint256"},{"name":"_oracle","type":"address","internalType":"address"}],"outputs":[{"name":"","type":"uint256","internalType":"uint256"}],"stateMutability":"nonpayable"},{"type":"function","name":"feeCollector","inputs":[],"outputs":[{"name":"","type":"address","internalType":"address"}],"stateMutability":"view"},{"type":"function","name":"getMarket","inputs":[{"name":"_marketId","type":"uint256","internalType":"uint256"}],"outputs":[{"name":"question","type":"string","internalType":"string"},{"name":"description","type":"string","internalType":"string"},{"name":"endTime","type":"uint256","internalType":"uint256"},{"name":"resolutionTime","type":"uint256","internalType":"uint256"},{"name":"state","type":"uint8","internalType":"enum PredictionMarket.MarketState"},{"name":"totalYesAmount","type":"uint256","internalType":"uint256"},{"name":"totalNoAmount","type":"uint256","internalType":"uint256"},{"name":"resolved","type":"bool","internalType":"bool"}],"stateMutability":"view"},{"type":"function","name":"getUserBets","inputs":[{"name":"_marketId","type":"uint256","internalType":"uint256"},{"name":"_user","type":"address","internalType":"address"}],"outputs":[{"name":"yesBet","type":"uint256","internalType":"uint256"},{"name":"noBet","type":"uint256","internalType":"uint256"}],"stateMutability":"view"},{"type":"function","name":"marketCounter","inputs":[],"outputs":[{"name":"","type":"uint256","internalType":"uint256"}],"stateMutability":"view"},{"type":"function","name":"markets","inputs":[{"name":"","type":"uint256","internalType":"uint256"}],"outputs":[{"name":"question","type":"string","internalType":"string"},{"name":"description","type":"string","internalType":"string"},{"name":"endTime","type":"uint256","internalType":"uint256"},{"name":"resolutionTime","type":"uint256","internalType":"uint256"},{"name":"state","type":"uint8","internalType":"enum PredictionMarket.MarketState"},{"name":"winningOutcome","type":"uint8","internalType":"enum PredictionMarket.Outcome"},{"name":"totalYesAmount","type":"uint256","internalType":"uint256"},{"name":"totalNoAmount","type":"uint256","internalType":"uint256"},{"name":"oracle","type":"address","internalType":"address"},{"name":"resolved","type":"bool","internalType":"bool"}],"stateMutability":"view"},{"type":"function","name":"owner","inputs":[],"outputs":[{"name":"","type":"address","internalType":"address"}],"stateMutability":"view"},{"type":"function","name":"placeBet","inputs":[{"name":"_marketId","type":"uint256","internalType":"uint256"},{"name":"_outcome","type":"uint8","internalType":"enum PredictionMarket.Outcome"},{"name":"_amount","type":"uint256","internalType":"uint256"}],"outputs":[],"stateMutability":"nonpayable"},{"type":"function","name":"renounceOwnership","inputs":[],"outputs":[],"stateMutability":"nonpayable"},{"type":"function","name":"resolveMarket","inputs":[{"name":"_marketId","type":"uint256","internalType":"uint256"},{"name":"_winningOutcome","type":"uint8","internalType":"enum PredictionMarket.Outcome"}],"outputs":[],"stateMutability":"nonpayable"},{"type":"function","name":"transferOwnership","inputs":[{"name":"newOwner","type":"address","internalType":"address"}],"outputs":[],"stateMutability":"nonpayable"},{"type":"function","name":"usdcToken","inputs":[],"outputs":[{"name":"","type":"address","internalType":"contract IERC20"}],"stateMutability":"view"},{"type":"event","name":"BetPlaced","inputs":[{"name":"marketId","type":"uint256","indexed":true,"internalType":"uint256"},{"name":"user","type":"address","indexed":true,"internalType":"address"},{"name":"outcome","type":"uint8","indexed":false,"internalType":"enum PredictionMarket.Outcome"},{"name":"amount","type":"uint256","indexed":false,"internalType":"uint256"}],"anonymous":false},{"type":"event","name":"MarketCreated","inputs":[{"name":"marketId","type":"uint256","indexed":true,"internalType":"uint256"},{"name":"question","type":"string","indexed":false,"internalType":"string"},{"name":"endTime","type":"uint256","indexed":false,"internalType":"uint256"}],"anonymous":false},{"type":"event","name":"MarketResolved","inputs":[{"name":"marketId","type":"uint256","indexed":true,"internalType":"uint256"},{"name":"winningOutcome","type":"uint8","indexed":false,"internalType":"enum PredictionMarket.Outcome"}],"anonymous":false},{"type":"event","name":"OwnershipTransferred","inputs":[{"name":"previousOwner","type":"address","indexed":true,"internalType":"address"},{"name":"newOwner","type":"address","indexed":true,"internalType":"address"}],"anonymous":false},{"type":"event","name":"WinningsClaimed","inputs":[{"name":"marketId","type":"uint256","indexed":true,"internalType":"uint256"},{"name":"user","type":"address","indexed":true,"internalType":"address"},{"name":"amount","type":"uint256","indexed":false,"internalType":"uint256"}],"anonymous":false},{"type":"error","name":"OwnableInvalidOwner","inputs":[{"name":"owner","type":"address","internalType":"address"}]},{"type":"error","name":"OwnableUnauthorizedAccount","inputs":[{"name":"account","type":"address","internalType":"address"}]},{"type":"error","name":"ReentrancyGuardReentrantCall","inputs":[]}],"bytecode":{"object":"0x608060405234801561000f575f5ffd5b50604051612c52380380612c5283398181016040528101906100319190610261565b3360015f819055505f73ffffffffffffffffffffffffffffffffffffffff168173ffffffffffffffffffffffffffffffffffffffff16036100a9575f6040517f1e4fbdf70000000000000000000000000000000000000000000000000000000081526004016100a091906102ae565b60405180910390fd5b6100b88161014060201b60201c565b508160045f6101000a81548173ffffffffffffffffffffffffffffffffffffffff021916908373ffffffffffffffffffffffffffffffffffffffff1602179055508060055f6101000a81548173ffffffffffffffffffffffffffffffffffffffff021916908373ffffffffffffffffffffffffffffffffffffffff16021790555050506102c7565b5f60015f9054906101000a900473ffffffffffffffffffffffffffffffffffffffff1690508160015f6101000a81548173ffffffffffffffffffffffffffffffffffffffff021916908373ffffffffffffffffffffffffffffffffffffffff1602179055508173ffffffffffffffffffffffffffffffffffffffff168173ffffffffffffffffffffffffffffffffffffffff167f8be0079c531659141344cd1fd0a4f28419497f9722a3daafe3b4186f6b6457e060405160405180910390a35050565b5f5ffd5b5f73ffffffffffffffffffffffffffffffffffffffff82169050919050565b5f61023082610207565b9050919050565b61024081610226565b811461024a575f5ffd5b50565b5f8151905061025b81610237565b92915050565b5f5f6040838503121561027757610276610203565b5b5f6102848582860161024d565b92505060206102958582860161024d565b9150509250929050565b6102a881610226565b82525050565b5f6020820190506102c15f83018461029f565b92915050565b61297e806102d45f395ff3fe608060405234801561000f575f5ffd5b50600436106100fd575f3560e01c8063b1283e7711610095578063df55406e11610064578063df55406e14610290578063eb44fdd3146102ac578063f2fde38b146102e3578063fa744dd3146102ff576100fd565b8063b1283e77146101ff578063c415b95c14610238578063d73792a914610256578063da866c4814610274576100fd565b806341fdb485116100d157806341fdb4851461018b578063677bd9ff146101bb578063715018a6146101d75780638da5cb5b146101e1576100fd565b80620b46f81461010157806311eac8551461011f578063247608071461013d5780632db0521f1461015b575b5f5ffd5b610109610330565b604051610116919061177a565b60405180910390f35b610127610335565b604051610134919061180d565b60405180910390f35b61014561035a565b604051610152919061177a565b60405180910390f35b610175600480360381019061017091906119d8565b610360565b604051610182919061177a565b60405180910390f35b6101a560048036038101906101a09190611aaa565b6104fc565b6040516101b2919061177a565b60405180910390f35b6101d560048036038101906101d09190611afa565b610612565b005b6101df610b41565b005b6101e9610b54565b6040516101f69190611b34565b60405180910390f35b61021960048036038101906102149190611afa565b610b7c565b60405161022f9a99989796959493929190611c80565b60405180910390f35b610240610d1d565b60405161024d9190611b34565b60405180910390f35b61025e610d42565b60405161026b919061177a565b60405180910390f35b61028e60048036038101906102899190611aaa565b610d48565b005b6102aa60048036038101906102a59190611d28565b6110ad565b005b6102c660048036038101906102c19190611afa565b611313565b6040516102da989796959493929190611d66565b60405180910390f35b6102fd60048036038101906102f89190611df0565b61149e565b005b61031960048036038101906103149190611e1b565b611522565b604051610327929190611e59565b60405180910390f35b603281565b60045f9054906101000a900473ffffffffffffffffffffffffffffffffffffffff1681565b60035481565b5f4284116103a3576040517f08c379a000000000000000000000000000000000000000000000000000000000815260040161039a90611eca565b60405180910390fd5b8383116103e5576040517f08c379a00000000000000000000000000000000000000000000000000000000081526004016103dc90611f58565b60405180910390fd5b5f60035f8154809291906103f890611fa3565b9190505590505f60025f8381526020019081526020015f20905087815f01908161042291906121de565b508681600101908161043491906121de565b508581600201819055508481600301819055505f816004015f6101000a81548160ff0219169083600281111561046d5761046c611bad565b5b02179055508381600a015f6101000a81548173ffffffffffffffffffffffffffffffffffffffff021916908373ffffffffffffffffffffffffffffffffffffffff160217905550817f2d1e9ad45dbe8e898e0374deebf2a661b2ae7c1855d2a29507d584c35d287c7589886040516104e69291906122ad565b60405180910390a2819250505095945050505050565b5f5f60025f8681526020019081526020015f2090505f5f600181111561052557610524611bad565b5b85600181111561053857610537611bad565b5b146105525783826006015461054d91906122db565b610563565b83826005015461056291906122db565b5b90505f5f600181111561057957610578611bad565b5b86600181111561058c5761058b611bad565b5b1461059b5782600501546105a1565b82600601545b90505f81036105b55784935050505061060b565b5f6127106032836105c6919061230e565b6105d0919061237c565b90505f81836105df91906123ac565b90508387826105ee919061230e565b6105f8919061237c565b8761060391906122db565b955050505050505b9392505050565b61061a6115c4565b5f60025f8381526020019081526020015f2090506001600281111561064257610641611bad565b5b816004015f9054906101000a900460ff16600281111561066557610664611bad565b5b146106a5576040517f08c379a000000000000000000000000000000000000000000000000000000000815260040161069c90612429565b60405180910390fd5b806009015f3373ffffffffffffffffffffffffffffffffffffffff1673ffffffffffffffffffffffffffffffffffffffff1681526020019081526020015f205f9054906101000a900460ff1615610731576040517f08c379a000000000000000000000000000000000000000000000000000000000815260040161072890612491565b60405180910390fd5b5f5f5f5f600181111561074757610746611bad565b5b8460040160019054906101000a900460ff16600181111561076b5761076a611bad565b5b036107c557836007015f3373ffffffffffffffffffffffffffffffffffffffff1673ffffffffffffffffffffffffffffffffffffffff1681526020019081526020015f205492508360050154915083600601549050610816565b836008015f3373ffffffffffffffffffffffffffffffffffffffff1673ffffffffffffffffffffffffffffffffffffffff1681526020019081526020015f2054925083600601549150836005015490505b5f8311610858576040517f08c379a000000000000000000000000000000000000000000000000000000000815260040161084f906124f9565b60405180910390fd5b5f612710603283610869919061230e565b610873919061237c565b90505f818361088291906123ac565b90505f848683610892919061230e565b61089c919061237c565b866108a791906122db565b90506001876009015f3373ffffffffffffffffffffffffffffffffffffffff1673ffffffffffffffffffffffffffffffffffffffff1681526020019081526020015f205f6101000a81548160ff02191690831515021790555060045f9054906101000a900473ffffffffffffffffffffffffffffffffffffffff1673ffffffffffffffffffffffffffffffffffffffff1663a9059cbb33836040518363ffffffff1660e01b815260040161095c929190612517565b6020604051808303815f875af1158015610978573d5f5f3e3d5ffd5b505050506040513d601f19601f8201168201806040525081019061099c9190612568565b6109db576040517f08c379a00000000000000000000000000000000000000000000000000000000081526004016109d2906125dd565b60405180910390fd5b5f831115610ae05760045f9054906101000a900473ffffffffffffffffffffffffffffffffffffffff1673ffffffffffffffffffffffffffffffffffffffff1663a9059cbb60055f9054906101000a900473ffffffffffffffffffffffffffffffffffffffff16856040518363ffffffff1660e01b8152600401610a60929190612517565b6020604051808303815f875af1158015610a7c573d5f5f3e3d5ffd5b505050506040513d601f19601f82011682018060405250810190610aa09190612568565b610adf576040517f08c379a0000000000000000000000000000000000000000000000000000000008152600401610ad690612645565b60405180910390fd5b5b3373ffffffffffffffffffffffffffffffffffffffff16887f5380cf6fe903b40c6d5a9e0dfbca2f3a423f0a21520b4d5947ed5169bdba946d83604051610b27919061177a565b60405180910390a350505050505050610b3e611608565b50565b610b49611611565b610b525f611698565b565b5f60015f9054906101000a900473ffffffffffffffffffffffffffffffffffffffff16905090565b6002602052805f5260405f205f91509050805f018054610b9b90612017565b80601f0160208091040260200160405190810160405280929190818152602001828054610bc790612017565b8015610c125780601f10610be957610100808354040283529160200191610c12565b820191905f5260205f20905b815481529060010190602001808311610bf557829003601f168201915b505050505090806001018054610c2790612017565b80601f0160208091040260200160405190810160405280929190818152602001828054610c5390612017565b8015610c9e5780601f10610c7557610100808354040283529160200191610c9e565b820191905f5260205f20905b815481529060010190602001808311610c8157829003601f168201915b505050505090806002015490806003015490806004015f9054906101000a900460ff16908060040160019054906101000a900460ff169080600501549080600601549080600a015f9054906101000a900473ffffffffffffffffffffffffffffffffffffffff169080600a0160149054906101000a900460ff1690508a565b60055f9054906101000a900473ffffffffffffffffffffffffffffffffffffffff1681565b61271081565b610d506115c4565b5f60025f8581526020019081526020015f2090505f6002811115610d7757610d76611bad565b5b816004015f9054906101000a900460ff166002811115610d9a57610d99611bad565b5b14610dda576040517f08c379a0000000000000000000000000000000000000000000000000000000008152600401610dd1906126ad565b60405180910390fd5b80600201544210610e20576040517f08c379a0000000000000000000000000000000000000000000000000000000008152600401610e1790612715565b60405180910390fd5b5f8211610e62576040517f08c379a0000000000000000000000000000000000000000000000000000000008152600401610e599061277d565b60405180910390fd5b60045f9054906101000a900473ffffffffffffffffffffffffffffffffffffffff1673ffffffffffffffffffffffffffffffffffffffff166323b872dd3330856040518463ffffffff1660e01b8152600401610ec09392919061279b565b6020604051808303815f875af1158015610edc573d5f5f3e3d5ffd5b505050506040513d601f19601f82011682018060405250810190610f009190612568565b610f3f576040517f08c379a0000000000000000000000000000000000000000000000000000000008152600401610f36906125dd565b60405180910390fd5b5f6001811115610f5257610f51611bad565b5b836001811115610f6557610f64611bad565b5b03610fde5781816007015f3373ffffffffffffffffffffffffffffffffffffffff1673ffffffffffffffffffffffffffffffffffffffff1681526020019081526020015f205f828254610fb891906122db565b9250508190555081816005015f828254610fd291906122db565b9250508190555061104e565b81816008015f3373ffffffffffffffffffffffffffffffffffffffff1673ffffffffffffffffffffffffffffffffffffffff1681526020019081526020015f205f82825461102c91906122db565b9250508190555081816006015f82825461104691906122db565b925050819055505b3373ffffffffffffffffffffffffffffffffffffffff16847f4f1eed5e863a822b0f9eb960dfdab2cc5a99beec4b191f2a7a9c7e28e5a1552485856040516110979291906127d0565b60405180910390a3506110a8611608565b505050565b5f60025f8481526020019081526020015f20905080600a015f9054906101000a900473ffffffffffffffffffffffffffffffffffffffff1673ffffffffffffffffffffffffffffffffffffffff163373ffffffffffffffffffffffffffffffffffffffff1614611152576040517f08c379a000000000000000000000000000000000000000000000000000000000815260040161114990612841565b60405180910390fd5b5f600281111561116557611164611bad565b5b816004015f9054906101000a900460ff16600281111561118857611187611bad565b5b146111c8576040517f08c379a00000000000000000000000000000000000000000000000000000000081526004016111bf906126ad565b60405180910390fd5b806003015442101561120f576040517f08c379a0000000000000000000000000000000000000000000000000000000008152600401611206906128a9565b60405180910390fd5b80600a0160149054906101000a900460ff1615611261576040517f08c379a000000000000000000000000000000000000000000000000000000000815260040161125890612911565b60405180910390fd5b818160040160016101000a81548160ff0219169083600181111561128857611287611bad565b5b02179055506001816004015f6101000a81548160ff021916908360028111156112b4576112b3611bad565b5b0217905550600181600a0160146101000a81548160ff021916908315150217905550827f739f283563fb51ab6b89ee95d937b2e63a6cfcb83c385dbebb629f9d97bd43e683604051611306919061292f565b60405180910390a2505050565b6060805f5f5f5f5f5f5f60025f8b81526020019081526020015f209050805f018160010182600201548360030154846004015f9054906101000a900460ff168560050154866006015487600a0160149054906101000a900460ff1687805461137a90612017565b80601f01602080910402602001604051908101604052809291908181526020018280546113a690612017565b80156113f15780601f106113c8576101008083540402835291602001916113f1565b820191905f5260205f20905b8154815290600101906020018083116113d457829003601f168201915b5050505050975086805461140490612017565b80601f016020809104026020016040519081016040528092919081815260200182805461143090612017565b801561147b5780601f106114525761010080835404028352916020019161147b565b820191905f5260205f20905b81548152906001019060200180831161145e57829003601f168201915b505050505096509850985098509850985098509850985050919395975091939597565b6114a6611611565b5f73ffffffffffffffffffffffffffffffffffffffff168173ffffffffffffffffffffffffffffffffffffffff1603611516575f6040517f1e4fbdf700000000000000000000000000000000000000000000000000000000815260040161150d9190611b34565b60405180910390fd5b61151f81611698565b50565b5f5f5f60025f8681526020019081526020015f209050806007015f8573ffffffffffffffffffffffffffffffffffffffff1673ffffffffffffffffffffffffffffffffffffffff1681526020019081526020015f2054816008015f8673ffffffffffffffffffffffffffffffffffffffff1673ffffffffffffffffffffffffffffffffffffffff1681526020019081526020015f205492509250509250929050565b60025f54036115ff576040517f3ee5aeb500000000000000000000000000000000000000000000000000000000815260040160405180910390fd5b60025f81905550565b60015f81905550565b61161961175b565b73ffffffffffffffffffffffffffffffffffffffff16611637610b54565b73ffffffffffffffffffffffffffffffffffffffff16146116965761165a61175b565b6040517f118cdaa700000000000000000000000000000000000000000000000000000000815260040161168d9190611b34565b60405180910390fd5b565b5f60015f9054906101000a900473ffffffffffffffffffffffffffffffffffffffff1690508160015f6101000a81548173ffffffffffffffffffffffffffffffffffffffff021916908373ffffffffffffffffffffffffffffffffffffffff1602179055508173ffffffffffffffffffffffffffffffffffffffff168173ffffffffffffffffffffffffffffffffffffffff167f8be0079c531659141344cd1fd0a4f28419497f9722a3daafe3b4186f6b6457e060405160405180910390a35050565b5f33905090565b5f819050919050565b61177481611762565b82525050565b5f60208201905061178d5f83018461176b565b92915050565b5f73ffffffffffffffffffffffffffffffffffffffff82169050919050565b5f819050919050565b5f6117d56117d06117cb84611793565b6117b2565b611793565b9050919050565b5f6117e6826117bb565b9050919050565b5f6117f7826117dc565b9050919050565b611807816117ed565b82525050565b5f6020820190506118205f8301846117fe565b92915050565b5f604051905090565b5f5ffd5b5f5ffd5b5f5ffd5b5f5ffd5b5f601f19601f8301169050919050565b7f4e487b71000000000000000000000000000000000000000000000000000000005f52604160045260245ffd5b6118858261183f565b810181811067ffffffffffffffff821117156118a4576118a361184f565b5b80604052505050565b5f6118b6611826565b90506118c2828261187c565b919050565b5f67ffffffffffffffff8211156118e1576118e061184f565b5b6118ea8261183f565b9050602081019050919050565b828183375f83830152505050565b5f611917611912846118c7565b6118ad565b9050828152602081018484840111156119335761193261183b565b5b61193e8482856118f7565b509392505050565b5f82601f83011261195a57611959611837565b5b813561196a848260208601611905565b91505092915050565b61197c81611762565b8114611986575f5ffd5b50565b5f8135905061199781611973565b92915050565b5f6119a782611793565b9050919050565b6119b78161199d565b81146119c1575f5ffd5b50565b5f813590506119d2816119ae565b92915050565b5f5f5f5f5f60a086880312156119f1576119f061182f565b5b5f86013567ffffffffffffffff811115611a0e57611a0d611833565b5b611a1a88828901611946565b955050602086013567ffffffffffffffff811115611a3b57611a3a611833565b5b611a4788828901611946565b9450506040611a5888828901611989565b9350506060611a6988828901611989565b9250506080611a7a888289016119c4565b9150509295509295909350565b60028110611a93575f5ffd5b50565b5f81359050611aa481611a87565b92915050565b5f5f5f60608486031215611ac157611ac061182f565b5b5f611ace86828701611989565b9350506020611adf86828701611a96565b9250506040611af086828701611989565b9150509250925092565b5f60208284031215611b0f57611b0e61182f565b5b5f611b1c84828501611989565b91505092915050565b611b2e8161199d565b82525050565b5f602082019050611b475f830184611b25565b92915050565b5f81519050919050565b5f82825260208201905092915050565b8281835e5f83830152505050565b5f611b7f82611b4d565b611b898185611b57565b9350611b99818560208601611b67565b611ba28161183f565b840191505092915050565b7f4e487b71000000000000000000000000000000000000000000000000000000005f52602160045260245ffd5b60038110611beb57611bea611bad565b5b50565b5f819050611bfb82611bda565b919050565b5f611c0a82611bee565b9050919050565b611c1a81611c00565b82525050565b60028110611c3157611c30611bad565b5b50565b5f819050611c4182611c20565b919050565b5f611c5082611c34565b9050919050565b611c6081611c46565b82525050565b5f8115159050919050565b611c7a81611c66565b82525050565b5f610140820190508181035f830152611c99818d611b75565b90508181036020830152611cad818c611b75565b9050611cbc604083018b61176b565b611cc9606083018a61176b565b611cd66080830189611c11565b611ce360a0830188611c57565b611cf060c083018761176b565b611cfd60e083018661176b565b611d0b610100830185611b25565b611d19610120830184611c71565b9b9a5050505050505050505050565b5f5f60408385031215611d3e57611d3d61182f565b5b5f611d4b85828601611989565b9250506020611d5c85828601611a96565b9150509250929050565b5f610100820190508181035f830152611d7f818b611b75565b90508181036020830152611d93818a611b75565b9050611da2604083018961176b565b611daf606083018861176b565b611dbc6080830187611c11565b611dc960a083018661176b565b611dd660c083018561176b565b611de360e0830184611c71565b9998505050505050505050565b5f60208284031215611e0557611e0461182f565b5b5f611e12848285016119c4565b91505092915050565b5f5f60408385031215611e3157611e3061182f565b5b5f611e3e85828601611989565b9250506020611e4f858286016119c4565b9150509250929050565b5f604082019050611e6c5f83018561176b565b611e79602083018461176b565b9392505050565b7f456e642074696d65206d75737420626520696e206675747572650000000000005f82015250565b5f611eb4601a83611b57565b9150611ebf82611e80565b602082019050919050565b5f6020820190508181035f830152611ee181611ea8565b9050919050565b7f5265736f6c7574696f6e2074696d65206d75737420626520616674657220656e5f8201527f642074696d650000000000000000000000000000000000000000000000000000602082015250565b5f611f42602683611b57565b9150611f4d82611ee8565b604082019050919050565b5f6020820190508181035f830152611f6f81611f36565b9050919050565b7f4e487b71000000000000000000000000000000000000000000000000000000005f52601160045260245ffd5b5f611fad82611762565b91507fffffffffffffffffffffffffffffffffffffffffffffffffffffffffffffffff8203611fdf57611fde611f76565b5b600182019050919050565b7f4e487b71000000000000000000000000000000000000000000000000000000005f52602260045260245ffd5b5f600282049050600182168061202e57607f821691505b60208210810361204157612040611fea565b5b50919050565b5f819050815f5260205f209050919050565b5f6020601f8301049050919050565b5f82821b905092915050565b5f600883026120a37fffffffffffffffffffffffffffffffffffffffffffffffffffffffffffffffff82612068565b6120ad8683612068565b95508019841693508086168417925050509392505050565b5f6120df6120da6120d584611762565b6117b2565b611762565b9050919050565b5f819050919050565b6120f8836120c5565b61210c612104826120e6565b848454612074565b825550505050565b5f5f905090565b612123612114565b61212e8184846120ef565b505050565b5b81811015612151576121465f8261211b565b600181019050612134565b5050565b601f8211156121965761216781612047565b61217084612059565b8101602085101561217f578190505b61219361218b85612059565b830182612133565b50505b505050565b5f82821c905092915050565b5f6121b65f198460080261219b565b1980831691505092915050565b5f6121ce83836121a7565b9150826002028217905092915050565b6121e782611b4d565b67ffffffffffffffff811115612200576121ff61184f565b5b61220a8254612017565b612215828285612155565b5f60209050601f831160018114612246575f8415612234578287015190505b61223e85826121c3565b8655506122a5565b601f19841661225486612047565b5f5b8281101561227b57848901518255600182019150602085019450602081019050612256565b868310156122985784890151612294601f8916826121a7565b8355505b6001600288020188555050505b505050505050565b5f6040820190508181035f8301526122c58185611b75565b90506122d4602083018461176b565b9392505050565b5f6122e582611762565b91506122f083611762565b925082820190508082111561230857612307611f76565b5b92915050565b5f61231882611762565b915061232383611762565b925082820261233181611762565b9150828204841483151761234857612347611f76565b5b5092915050565b7f4e487b71000000000000000000000000000000000000000000000000000000005f52601260045260245ffd5b5f61238682611762565b915061239183611762565b9250826123a1576123a061234f565b5b828204905092915050565b5f6123b682611762565b91506123c183611762565b92508282039050818111156123d9576123d8611f76565b5b92915050565b7f4d61726b6574206e6f74207265736f6c766564000000000000000000000000005f82015250565b5f612413601383611b57565b915061241e826123df565b602082019050919050565b5f6020820190508181035f83015261244081612407565b9050919050565b7f416c726561647920636c61696d656400000000000000000000000000000000005f82015250565b5f61247b600f83611b57565b915061248682612447565b602082019050919050565b5f6020820190508181035f8301526124a88161246f565b9050919050565b7f4e6f2077696e6e696e672062657420666f756e640000000000000000000000005f82015250565b5f6124e3601483611b57565b91506124ee826124af565b602082019050919050565b5f6020820190508181035f830152612510816124d7565b9050919050565b5f60408201905061252a5f830185611b25565b612537602083018461176b565b9392505050565b61254781611c66565b8114612551575f5ffd5b50565b5f815190506125628161253e565b92915050565b5f6020828403121561257d5761257c61182f565b5b5f61258a84828501612554565b91505092915050565b7f5472616e73666572206661696c656400000000000000000000000000000000005f82015250565b5f6125c7600f83611b57565b91506125d282612593565b602082019050919050565b5f6020820190508181035f8301526125f4816125bb565b9050919050565b7f466565207472616e73666572206661696c6564000000000000000000000000005f82015250565b5f61262f601383611b57565b915061263a826125fb565b602082019050919050565b5f6020820190508181035f83015261265c81612623565b9050919050565b7f4d61726b6574206e6f74206163746976650000000000000000000000000000005f82015250565b5f612697601183611b57565b91506126a282612663565b602082019050919050565b5f6020820190508181035f8301526126c48161268b565b9050919050565b7f42657474696e6720706572696f6420656e6465640000000000000000000000005f82015250565b5f6126ff601483611b57565b915061270a826126cb565b602082019050919050565b5f6020820190508181035f83015261272c816126f3565b9050919050565b7f416d6f756e74206d7573742062652067726561746572207468616e20300000005f82015250565b5f612767601d83611b57565b915061277282612733565b602082019050919050565b5f6020820190508181035f8301526127948161275b565b9050919050565b5f6060820190506127ae5f830186611b25565b6127bb6020830185611b25565b6127c8604083018461176b565b949350505050565b5f6040820190506127e35f830185611c57565b6127f0602083018461176b565b9392505050565b7f4f6e6c79206f7261636c652063616e207265736f6c76650000000000000000005f82015250565b5f61282b601783611b57565b9150612836826127f7565b602082019050919050565b5f6020820190508181035f8301526128588161281f565b9050919050565b7f5265736f6c7574696f6e2074696d65206e6f74207265616368656400000000005f82015250565b5f612893601b83611b57565b915061289e8261285f565b602082019050919050565b5f6020820190508181035f8301526128c081612887565b9050919050565b7f416c7265616479207265736f6c766564000000000000000000000000000000005f82015250565b5f6128fb601083611b57565b9150612906826128c7565b602082019050919050565b5f6020820190508181035f830152612928816128ef565b9050919050565b5f6020820190506129425f830184611c57565b9291505056fea264697066735822122030292c8f41f29762aa1f6882084542f8ed03e40c057c00e7d53c4e55708e2bfd64736f6c634300081e0033","linkReferences":{}},"methodIdentifiers":{"FEE_DENOMINATOR()":"d73792a9","FEE_PERCENTAGE()":"000b46f8","calculatePotentialWinnings(uint256,uint8,uint256)":"41fdb485","claimWinnings(uint256)":"677bd9ff","createMarket(string,string,uint256,uint256,address)":"2db0521f","feeCollector()":"c415b95c","getMarket(uint256)":"eb44fdd3","getUserBets(uint256,address)":"fa744dd3","marketCounter()":"24760807","markets(uint256)":"b1283e77","owner()":"8da5cb5b","placeBet(uint256,uint8,uint256)":"da866c48","renounceOwnership()":"715018a6","resolveMarket(uint256,uint8)":"df55406e","transferOwnership(address)":"f2fde38b","usdcToken()":"11eac855"},"id":5}