{"abi":[{"type":"constructor","inputs":[{"name":"_predictionMarket","type":"address","internalType":"address"}],"stateMutability":"nonpayable"},{"type":"function","name":"MIN_CONFIDENCE","inputs":[],"outputs":[{"name":"","type":"uint256","internalType":"uint256"}],"stateMutability":"view"},{"type":"function","name":"MIN_RESOLVERS","inputs":[],"outputs":[{"name":"","type":"uint256","internalType":"uint256"}],"stateMutability":"view"},{"type":"function","name":"addResolver","inputs":[{"name":"_resolver","type":"address","internalType":"address"}],"outputs":[],"stateMutability":"nonpayable"},{"type":"function","name":"authorizedResolvers","inputs":[{"name":"","type":"address","internalType":"address"}],"outputs":[{"name":"","type":"bool","internalType":"bool"}],"stateMutability":"view"},{"type":"function","name":"createDataFeed","inputs":[{"name":"_apiEndpoint","type":"string","internalType":"string"},{"name":"_jsonPath","type":"string","internalType":"string"},{"name":"_threshold","type":"int256","internalType":"int256"}],"outputs":[{"name":"","type":"uint256","internalType":"uint256"}],"stateMutability":"nonpayable"},{"type":"function","name":"dataFeeds","inputs":[{"name":"","type":"uint256","internalType":"uint256"}],"outputs":[{"name":"apiEndpoint","type":"string","internalType":"string"},{"name":"jsonPath","type":"string","internalType":"string"},{"name":"threshold","type":"int256","internalType":"int256"},{"name":"isActive","type":"bool","internalType":"bool"}],"stateMutability":"view"},{"type":"function","name":"emergencyResolve","inputs":[{"name":"_marketId","type":"uint256","internalType":"uint256"},{"name":"_outcome","type":"uint8","internalType":"enum PredictionMarket.Outcome"}],"outputs":[],"stateMutability":"nonpayable"},{"type":"function","name":"feedCounter","inputs":[],"outputs":[{"name":"","type":"uint256","internalType":"uint256"}],"stateMutability":"view"},{"type":"function","name":"getResolutions","inputs":[{"name":"_marketId","type":"uint256","internalType":"uint256"}],"outputs":[{"name":"outcomes","type":"uint8[]","internalType":"enum PredictionMarket.Outcome[]"},{"name":"confidences","type":"uint256[]","internalType":"uint256[]"},{"name":"resolvers","type":"address[]","internalType":"address[]"}],"stateMutability":"view"},{"type":"function","name":"owner","inputs":[],"outputs":[{"name":"","type":"address","internalType":"address"}],"stateMutability":"view"},{"type":"function","name":"predictionMarket","inputs":[],"outputs":[{"name":"","type":"address","internalType":"contract PredictionMarket"}],"stateMutability":"view"},{"type":"function","name":"renounceOwnership","inputs":[],"outputs":[],"stateMutability":"nonpayable"},{"type":"function","name":"resolutions","inputs":[{"name":"","type":"uint256","internalType":"uint256"},{"name":"","type":"uint256","internalType":"uint256"}],"outputs":[{"name":"marketId","type":"uint256","internalType":"uint256"},{"name":"outcome","type":"uint8","internalType":"enum PredictionMarket.Outcome"},{"name":"confidence","type":"uint256","internalType":"uint256"},{"name":"timestamp","type":"uint256","internalType":"uint256"},{"name":"resolver","type":"address","internalType":"address"}],"stateMutability":"view"},{"type":"function","name":"submitResolution","inputs":[{"name":"_marketId","type":"uint256","internalType":"uint256"},{"name":"_outcome","type":"uint8","internalType":"enum PredictionMarket.Outcome"},{"name":"_confidence","type":"uint256","internalType":"uint256"}],"outputs":[],"stateMutability":"nonpayable"},{"type":"function","name":"transferOwnership","inputs":[{"name":"newOwner","type":"address","internalType":"address"}],"outputs":[],"stateMutability":"nonpayable"},{"type":"event","name":"DataFeedCreated","inputs":[{"name":"feedId","type":"uint256","indexed":true,"internalType":"uint256"},{"name":"apiEndpoint","type":"string","indexed":false,"internalType":"string"}],"anonymous":false},{"type":"event","name":"MarketAutoResolved","inputs":[{"name":"marketId","type":"uint256","indexed":true,"internalType":"uint256"},{"name":"outcome","type":"uint8","indexed":false,"internalType":"enum PredictionMarket.Outcome"}],"anonymous":false},{"type":"event","name":"OwnershipTransferred","inputs":[{"name":"previousOwner","type":"address","indexed":true,"internalType":"address"},{"name":"newOwner","type":"address","indexed":true,"internalType":"address"}],"anonymous":false},{"type":"event","name":"ResolutionSubmitted","inputs":[{"name":"marketId","type":"uint256","indexed":true,"internalType":"uint256"},{"name":"resolver","type":"address","indexed":false,"internalType":"address"},{"name":"outcome","type":"uint8","indexed":false,"internalType":"enum PredictionMarket.Outcome"}],"anonymous":false},{"type":"error","name":"OwnableInvalidOwner","inputs":[{"name":"owner","type":"address","internalType":"address"}]},{"type":"error","name":"OwnableUnauthorizedAccount","inputs":[{"name":"account","type":"address","internalType":"address"}]}],"bytecode":{"object":"0x608060405234801561000f575f5ffd5b5060405161222838038061222883398181016040528101906100319190610217565b335f73ffffffffffffffffffffffffffffffffffffffff168173ffffffffffffffffffffffffffffffffffffffff16036100a2575f6040517f1e4fbdf70000000000000000000000000000000000000000000000000000000081526004016100999190610251565b60405180910390fd5b6100b1816100f860201b60201c565b508060055f6101000a81548173ffffffffffffffffffffffffffffffffffffffff021916908373ffffffffffffffffffffffffffffffffffffffff1602179055505061026a565b5f5f5f9054906101000a900473ffffffffffffffffffffffffffffffffffffffff169050815f5f6101000a81548173ffffffffffffffffffffffffffffffffffffffff021916908373ffffffffffffffffffffffffffffffffffffffff1602179055508173ffffffffffffffffffffffffffffffffffffffff168173ffffffffffffffffffffffffffffffffffffffff167f8be0079c531659141344cd1fd0a4f28419497f9722a3daafe3b4186f6b6457e060405160405180910390a35050565b5f5ffd5b5f73ffffffffffffffffffffffffffffffffffffffff82169050919050565b5f6101e6826101bd565b9050919050565b6101f6816101dc565b8114610200575f5ffd5b50565b5f81519050610211816101ed565b92915050565b5f6020828403121561022c5761022b6101b9565b5b5f61023984828501610203565b91505092915050565b61024b816101dc565b82525050565b5f6020820190506102645f830184610242565b92915050565b611fb1806102775f395ff3fe608060405234801561000f575f5ffd5b50600436106100f3575f3560e01c806364571b1411610095578063d794d2d911610064578063d794d2d91461027a578063d995990d146102aa578063def114b6146102c6578063f2fde38b146102e4576100f3565b806364571b1414610218578063715018a6146102365780638da5cb5b14610240578063b81c2dc11461025e576100f3565b806316442136116100d1578063164421361461017a578063390a0b6f146101ae57806341f93757146101ca5780634b799c3a146101e8576100f3565b80630148c3eb146100f75780630aea7e47146101155780630f6cd12014610147575b5f5ffd5b6100ff610300565b60405161010c9190611184565b60405180910390f35b61012f600480360381019061012a91906111d8565b610306565b60405161013e939291906114bc565b60405180910390f35b610161600480360381019061015c91906111d8565b610634565b60405161017194939291906115a8565b60405180910390f35b610194600480360381019061018f91906115f9565b610778565b6040516101a5959493929190611655565b60405180910390f35b6101c860048036038101906101c391906116d0565b6107ef565b005b6101d261084f565b6040516101df9190611184565b60405180910390f35b61020260048036038101906101fd9190611851565b610854565b60405161020f9190611184565b60405180910390f35b610220610944565b60405161022d9190611184565b60405180910390f35b61023e610949565b005b61024861095c565b60405161025591906118d9565b60405180910390f35b61027860048036038101906102739190611915565b610983565b005b610294600480360381019061028f91906116d0565b610a50565b6040516102a19190611953565b60405180910390f35b6102c460048036038101906102bf919061196c565b610a6d565b005b6102ce610c9b565b6040516102db9190611a17565b60405180910390f35b6102fe60048036038101906102f991906116d0565b610cc0565b005b60045481565b60608060605f60025f8681526020019081526020015f20805480602002602001604051908101604052809291908181526020015f905b82821015610418578382905f5260205f2090600502016040518060a00160405290815f8201548152602001600182015f9054906101000a900460ff16600181111561038a5761038961122c565b5b600181111561039c5761039b61122c565b5b81526020016002820154815260200160038201548152602001600482015f9054906101000a900473ffffffffffffffffffffffffffffffffffffffff1673ffffffffffffffffffffffffffffffffffffffff1673ffffffffffffffffffffffffffffffffffffffff16815250508152602001906001019061033c565b505050509050805167ffffffffffffffff81111561043957610438611703565b5b6040519080825280602002602001820160405280156104675781602001602082028036833780820191505090505b509350805167ffffffffffffffff81111561048557610484611703565b5b6040519080825280602002602001820160405280156104b35781602001602082028036833780820191505090505b509250805167ffffffffffffffff8111156104d1576104d0611703565b5b6040519080825280602002602001820160405280156104ff5781602001602082028036833780820191505090505b5091505f5f90505b815181101561062b5781818151811061052357610522611a30565b5b60200260200101516020015185828151811061054257610541611a30565b5b6020026020010190600181111561055c5761055b61122c565b5b908160018111156105705761056f61122c565b5b8152505081818151811061058757610586611a30565b5b6020026020010151604001518482815181106105a6576105a5611a30565b5b6020026020010181815250508181815181106105c5576105c4611a30565b5b6020026020010151608001518382815181106105e4576105e3611a30565b5b602002602001019073ffffffffffffffffffffffffffffffffffffffff16908173ffffffffffffffffffffffffffffffffffffffff16815250508080600101915050610507565b50509193909250565b6001602052805f5260405f205f91509050805f01805461065390611a8a565b80601f016020809104026020016040519081016040528092919081815260200182805461067f90611a8a565b80156106ca5780601f106106a1576101008083540402835291602001916106ca565b820191905f5260205f20905b8154815290600101906020018083116106ad57829003601f168201915b5050505050908060010180546106df90611a8a565b80601f016020809104026020016040519081016040528092919081815260200182805461070b90611a8a565b80156107565780601f1061072d57610100808354040283529160200191610756565b820191905f5260205f20905b81548152906001019060200180831161073957829003601f168201915b505050505090806002015490806003015f9054906101000a900460ff16905084565b6002602052815f5260405f208181548110610791575f80fd5b905f5260205f2090600502015f9150915050805f015490806001015f9054906101000a900460ff1690806002015490806003015490806004015f9054906101000a900473ffffffffffffffffffffffffffffffffffffffff16905085565b6107f7610d44565b600160035f8373ffffffffffffffffffffffffffffffffffffffff1673ffffffffffffffffffffffffffffffffffffffff1681526020019081526020015f205f6101000a81548160ff02191690831515021790555050565b605081565b5f61085d610d44565b5f60045f81548092919061087090611ae7565b91905055905060405180608001604052808681526020018581526020018481526020016001151581525060015f8381526020019081526020015f205f820151815f0190816108be9190611cc5565b5060208201518160010190816108d49190611cc5565b50604082015181600201556060820151816003015f6101000a81548160ff021916908315150217905550905050807f39d5beeef71d54eefed6e341e5ce877f0d8d7c1ad35d2abf38c9d2c8049fbcfd866040516109319190611d94565b60405180910390a2809150509392505050565b600281565b610951610d44565b61095a5f610dcb565b565b5f5f5f9054906101000a900473ffffffffffffffffffffffffffffffffffffffff16905090565b61098b610d44565b60055f9054906101000a900473ffffffffffffffffffffffffffffffffffffffff1673ffffffffffffffffffffffffffffffffffffffff1663df55406e83836040518363ffffffff1660e01b81526004016109e7929190611db4565b5f604051808303815f87803b1580156109fe575f5ffd5b505af1158015610a10573d5f5f3e3d5ffd5b50505050817fa9db6cb1fe622b6a62c3cfa14d7401a27547e8cb36a2e0f3cd280685d55ab16982604051610a449190611ddb565b60405180910390a25050565b6003602052805f5260405f205f915054906101000a900460ff1681565b60035f3373ffffffffffffffffffffffffffffffffffffffff1673ffffffffffffffffffffffffffffffffffffffff1681526020019081526020015f205f9054906101000a900460ff16610af6576040517f08c379a0000000000000000000000000000000000000000000000000000000008152600401610aed90611e3e565b60405180910390fd5b6050811015610b3a576040517f08c379a0000000000000000000000000000000000000000000000000000000008152600401610b3190611ea6565b60405180910390fd5b60025f8481526020019081526020015f206040518060a00160405280858152602001846001811115610b6f57610b6e61122c565b5b81526020018381526020014281526020013373ffffffffffffffffffffffffffffffffffffffff16815250908060018154018082558091505060019003905f5260205f2090600502015f909190919091505f820151815f01556020820151816001015f6101000a81548160ff02191690836001811115610bf257610bf161122c565b5b021790555060408201518160020155606082015181600301556080820151816004015f6101000a81548173ffffffffffffffffffffffffffffffffffffffff021916908373ffffffffffffffffffffffffffffffffffffffff1602179055505050827fa811a21995eb6cf374dd5d5a0eb536cf6afbbb446e41e35fec0be2ea5e2c9ce83384604051610c85929190611ec4565b60405180910390a2610c9683610e8c565b505050565b60055f9054906101000a900473ffffffffffffffffffffffffffffffffffffffff1681565b610cc8610d44565b5f73ffffffffffffffffffffffffffffffffffffffff168173ffffffffffffffffffffffffffffffffffffffff1603610d38575f6040517f1e4fbdf7000000000000000000000000000000000000000000000000000000008152600401610d2f91906118d9565b60405180910390fd5b610d4181610dcb565b50565b610d4c611165565b73ffffffffffffffffffffffffffffffffffffffff16610d6a61095c565b73ffffffffffffffffffffffffffffffffffffffff1614610dc957610d8d611165565b6040517f118cdaa7000000000000000000000000000000000000000000000000000000008152600401610dc091906118d9565b60405180910390fd5b565b5f5f5f9054906101000a900473ffffffffffffffffffffffffffffffffffffffff169050815f5f6101000a81548173ffffffffffffffffffffffffffffffffffffffff021916908373ffffffffffffffffffffffffffffffffffffffff1602179055508173ffffffffffffffffffffffffffffffffffffffff168173ffffffffffffffffffffffffffffffffffffffff167f8be0079c531659141344cd1fd0a4f28419497f9722a3daafe3b4186f6b6457e060405160405180910390a35050565b5f60025f8381526020019081526020015f20805480602002602001604051908101604052809291908181526020015f905b82821015610f99578382905f5260205f2090600502016040518060a00160405290815f8201548152602001600182015f9054906101000a900460ff166001811115610f0b57610f0a61122c565b5b6001811115610f1d57610f1c61122c565b5b81526020016002820154815260200160038201548152602001600482015f9054906101000a900473ffffffffffffffffffffffffffffffffffffffff1673ffffffffffffffffffffffffffffffffffffffff1673ffffffffffffffffffffffffffffffffffffffff168152505081526020019060010190610ebd565b505050509050600281511015610faf5750611162565b5f5f90505f5f90505f5f90505f5f90505b845181101561106d575f6001811115610fdc57610fdb61122c565b5b858281518110610fef57610fee611a30565b5b602002602001015160200151600181111561100d5761100c61122c565b5b0361102557838061101d90611ae7565b945050611034565b828061103090611ae7565b9350505b84818151811061104757611046611a30565b5b6020026020010151604001518261105e9190611eeb565b91508080600101915050610fc0565b505f84518261107c9190611f4b565b90506050811061115c575f838511611095576001611097565b5f5b905060055f9054906101000a900473ffffffffffffffffffffffffffffffffffffffff1673ffffffffffffffffffffffffffffffffffffffff1663df55406e88836040518363ffffffff1660e01b81526004016110f5929190611db4565b5f604051808303815f87803b15801561110c575f5ffd5b505af115801561111e573d5f5f3e3d5ffd5b50505050867fa9db6cb1fe622b6a62c3cfa14d7401a27547e8cb36a2e0f3cd280685d55ab169826040516111529190611ddb565b60405180910390a2505b50505050505b50565b5f33905090565b5f819050919050565b61117e8161116c565b82525050565b5f6020820190506111975f830184611175565b92915050565b5f604051905090565b5f5ffd5b5f5ffd5b6111b78161116c565b81146111c1575f5ffd5b50565b5f813590506111d2816111ae565b92915050565b5f602082840312156111ed576111ec6111a6565b5b5f6111fa848285016111c4565b91505092915050565b5f81519050919050565b5f82825260208201905092915050565b5f819050602082019050919050565b7f4e487b71000000000000000000000000000000000000000000000000000000005f52602160045260245ffd5b6002811061126a5761126961122c565b5b50565b5f81905061127a82611259565b919050565b5f6112898261126d565b9050919050565b6112998161127f565b82525050565b5f6112aa8383611290565b60208301905092915050565b5f602082019050919050565b5f6112cc82611203565b6112d6818561120d565b93506112e18361121d565b805f5b838110156113115781516112f8888261129f565b9750611303836112b6565b9250506001810190506112e4565b5085935050505092915050565b5f81519050919050565b5f82825260208201905092915050565b5f819050602082019050919050565b6113508161116c565b82525050565b5f6113618383611347565b60208301905092915050565b5f602082019050919050565b5f6113838261131e565b61138d8185611328565b935061139883611338565b805f5b838110156113c85781516113af8882611356565b97506113ba8361136d565b92505060018101905061139b565b5085935050505092915050565b5f81519050919050565b5f82825260208201905092915050565b5f819050602082019050919050565b5f73ffffffffffffffffffffffffffffffffffffffff82169050919050565b5f611427826113fe565b9050919050565b6114378161141d565b82525050565b5f611448838361142e565b60208301905092915050565b5f602082019050919050565b5f61146a826113d5565b61147481856113df565b935061147f836113ef565b805f5b838110156114af578151611496888261143d565b97506114a183611454565b925050600181019050611482565b5085935050505092915050565b5f6060820190508181035f8301526114d481866112c2565b905081810360208301526114e88185611379565b905081810360408301526114fc8184611460565b9050949350505050565b5f81519050919050565b5f82825260208201905092915050565b8281835e5f83830152505050565b5f601f19601f8301169050919050565b5f61154882611506565b6115528185611510565b9350611562818560208601611520565b61156b8161152e565b840191505092915050565b5f819050919050565b61158881611576565b82525050565b5f8115159050919050565b6115a28161158e565b82525050565b5f6080820190508181035f8301526115c0818761153e565b905081810360208301526115d4818661153e565b90506115e3604083018561157f565b6115f06060830184611599565b95945050505050565b5f5f6040838503121561160f5761160e6111a6565b5b5f61161c858286016111c4565b925050602061162d858286016111c4565b9150509250929050565b6116408161127f565b82525050565b61164f8161141d565b82525050565b5f60a0820190506116685f830188611175565b6116756020830187611637565b6116826040830186611175565b61168f6060830185611175565b61169c6080830184611646565b9695505050505050565b6116af8161141d565b81146116b9575f5ffd5b50565b5f813590506116ca816116a6565b92915050565b5f602082840312156116e5576116e46111a6565b5b5f6116f2848285016116bc565b91505092915050565b5f5ffd5b5f5ffd5b7f4e487b71000000000000000000000000000000000000000000000000000000005f52604160045260245ffd5b6117398261152e565b810181811067ffffffffffffffff8211171561175857611757611703565b5b80604052505050565b5f61176a61119d565b90506117768282611730565b919050565b5f67ffffffffffffffff82111561179557611794611703565b5b61179e8261152e565b9050602081019050919050565b828183375f83830152505050565b5f6117cb6117c68461177b565b611761565b9050828152602081018484840111156117e7576117e66116ff565b5b6117f28482856117ab565b509392505050565b5f82601f83011261180e5761180d6116fb565b5b813561181e8482602086016117b9565b91505092915050565b61183081611576565b811461183a575f5ffd5b50565b5f8135905061184b81611827565b92915050565b5f5f5f60608486031215611868576118676111a6565b5b5f84013567ffffffffffffffff811115611885576118846111aa565b5b611891868287016117fa565b935050602084013567ffffffffffffffff8111156118b2576118b16111aa565b5b6118be868287016117fa565b92505060406118cf8682870161183d565b9150509250925092565b5f6020820190506118ec5f830184611646565b92915050565b600281106118fe575f5ffd5b50565b5f8135905061190f816118f2565b92915050565b5f5f6040838503121561192b5761192a6111a6565b5b5f611938858286016111c4565b925050602061194985828601611901565b9150509250929050565b5f6020820190506119665f830184611599565b92915050565b5f5f5f60608486031215611983576119826111a6565b5b5f611990868287016111c4565b93505060206119a186828701611901565b92505060406119b2868287016111c4565b9150509250925092565b5f819050919050565b5f6119df6119da6119d5846113fe565b6119bc565b6113fe565b9050919050565b5f6119f0826119c5565b9050919050565b5f611a01826119e6565b9050919050565b611a11816119f7565b82525050565b5f602082019050611a2a5f830184611a08565b92915050565b7f4e487b71000000000000000000000000000000000000000000000000000000005f52603260045260245ffd5b7f4e487b71000000000000000000000000000000000000000000000000000000005f52602260045260245ffd5b5f6002820490506001821680611aa157607f821691505b602082108103611ab457611ab3611a5d565b5b50919050565b7f4e487b71000000000000000000000000000000000000000000000000000000005f52601160045260245ffd5b5f611af18261116c565b91507fffffffffffffffffffffffffffffffffffffffffffffffffffffffffffffffff8203611b2357611b22611aba565b5b600182019050919050565b5f819050815f5260205f209050919050565b5f6020601f8301049050919050565b5f82821b905092915050565b5f60088302611b8a7fffffffffffffffffffffffffffffffffffffffffffffffffffffffffffffffff82611b4f565b611b948683611b4f565b95508019841693508086168417925050509392505050565b5f611bc6611bc1611bbc8461116c565b6119bc565b61116c565b9050919050565b5f819050919050565b611bdf83611bac565b611bf3611beb82611bcd565b848454611b5b565b825550505050565b5f5f905090565b611c0a611bfb565b611c15818484611bd6565b505050565b5b81811015611c3857611c2d5f82611c02565b600181019050611c1b565b5050565b601f821115611c7d57611c4e81611b2e565b611c5784611b40565b81016020851015611c66578190505b611c7a611c7285611b40565b830182611c1a565b50505b505050565b5f82821c905092915050565b5f611c9d5f1984600802611c82565b1980831691505092915050565b5f611cb58383611c8e565b9150826002028217905092915050565b611cce82611506565b67ffffffffffffffff811115611ce757611ce6611703565b5b611cf18254611a8a565b611cfc828285611c3c565b5f60209050601f831160018114611d2d575f8415611d1b578287015190505b611d258582611caa565b865550611d8c565b601f198416611d3b86611b2e565b5f5b82811015611d6257848901518255600182019150602085019450602081019050611d3d565b86831015611d7f5784890151611d7b601f891682611c8e565b8355505b6001600288020188555050505b505050505050565b5f6020820190508181035f830152611dac818461153e565b905092915050565b5f604082019050611dc75f830185611175565b611dd46020830184611637565b9392505050565b5f602082019050611dee5f830184611637565b92915050565b7f4e6f7420617574686f72697a65640000000000000000000000000000000000005f82015250565b5f611e28600e83611510565b9150611e3382611df4565b602082019050919050565b5f6020820190508181035f830152611e5581611e1c565b9050919050565b7f436f6e666964656e636520746f6f206c6f7700000000000000000000000000005f82015250565b5f611e90601283611510565b9150611e9b82611e5c565b602082019050919050565b5f6020820190508181035f830152611ebd81611e84565b9050919050565b5f604082019050611ed75f830185611646565b611ee46020830184611637565b9392505050565b5f611ef58261116c565b9150611f008361116c565b9250828201905080821115611f1857611f17611aba565b5b92915050565b7f4e487b71000000000000000000000000000000000000000000000000000000005f52601260045260245ffd5b5f611f558261116c565b9150611f608361116c565b925082611f7057611f6f611f1e565b5b82820490509291505056fea2646970667358221220c9b82a01bbedbeadcbc440d19143c33b25a490d5fef413705b54ac8e30c78b6f64736f6c634300081e0033","linkReferences":{}},"methodIdentifiers":{"MIN_CONFIDENCE()":"41f93757","MIN_RESOLVERS()":"64571b14","addResolver(address)":"390a0b6f","authorizedResolvers(address)":"d794d2d9","createDataFeed(string,string,int256)":"4b799c3a","dataFeeds(uint256)":"0f6cd120","emergencyResolve(uint256,uint8)":"b81c2dc1","feedCounter()":"0148c3eb","getResolutions(uint256)":"0aea7e47","owner()":"8da5cb5b","predictionMarket()":"def114b6","renounceOwnership()":"715018a6","resolutions(uint256,uint256)":"16442136","submitResolution(uint256,uint8,uint256)":"d995990d","transferOwnership(address)":"f2fde38b"},"id":4}